:020000001628C0
:0E0006008312031321088A00200882000800DC
:1000140003208A110A128000840AA00A0319A10A83
:08002400F003031D0A28080087
:10002C0083120313A201A3010730990083169101D7
:10003C0001308500870183128701051C3D280030A3
:10004C002306031D2B2800302206031D3D280130FA
:10005C00A2000030A3000530FB000F30FC00F13093
:10006C00FD00FD0B3728FC0B3728FB0B3728051C34
:10007C00552800302306031D452801302206031D98
:10008C005528A201A3010530FB000F30FC00F13014
:10009C00FD00FD0B4F28FC0B4F28FB0B4F280030AD
:1000AC002306031D5B2801302206031D6D28070A59
:1000BC00F000700887000330FB000830FC0077303C
:1000CC00FD00FD0B6728FC0B6728FB0B672823281A
:0200DC006E288C
:02400E00D40FCD
:00000001FF
