:020000009F2837
:10000600831203132230FC00F801F901FA01FB0107
:10001600FC03031939280310FB0CFA0CF90CF80C35
:10002600F30CF20CF10CF00C031C0B28FC03031967
:100036002B287408F80775080318750FF907760852
:100046000318760FFA0777080318770FFB070F28B0
:100056007408F80775080318750FF907760803186A
:0E006600760FFA0777080318770FFB070800DC
:10007400831203133108A2003208A300A401A501CE
:060084000130A600080097
:0E008A008312031321088A0020088200080058
:10009800831203132608031D56280130B1000030CF
:1000A800B2003A202208F0002308F1002408F200E8
:1000B8002508F3006D30F4004E30F500C630F60028
:1000C8004130F70003203930F5003030F600F701F1
:1000D800F8017008F50771080318710FF607720820
:1000E8000318720FF70773080318730FF8077708D8
:1000F800F0007808F1000030F81BFF30F300FF3003
:10010800F0057F30F1050030F205F3057008A20014
:0E0118007108A3007208A4007308A500080077
:1001260045208A110A128000840AA00A0319A10A2E
:08013600F003031D93280800EB
:10013E0083120313A701A801A901AA01FA30AB008B
:10014E000030AC00AD01AE01AF01B0010730990037
:10015E008316910130308500013087008312AF0184
:10016E00B0010130AB02031CAC03A901AA01AD0121
:10017E00AE014C207008A7007108A8004C2027186B
:10018E00CA280510CB2805147018CF288510D02842
:10019E008514051CFD288518FD281A30FC00F83042
:1001AE00FD00FD0BD828FC0BD8280000A90A031966
:1001BE00AA0A0719ED28871CED280510EA30FC0065
:1001CE00C330FD00FD0BE928FC0BE9288718F32846
:1001DE002B08A9002C08AA002A082C06031DF928B2
:1001EE002B082906031DFC280510D028851C2A295A
:1001FE0005182A291A30FC00F830FD00FD0B0529E0
:10020E00FC0B05290000A90A0319AA0A87181A2946
:10021E00071D1A298510EA30FC00C330FD00FD0BC6
:10022E001629FC0B1629071920292B08A9002C08C2
:10023E00AA002A082C06031D26292B082906031DB1
:10024E0029298510FD28051C7929851C79291A3044
:10025E00FC00F830FD00FD0B3229FC0B32290000AA
:10026E00A90A0319AA0A0719482987184829051047
:10027E008510EA30FC00C330FD00FD0B4429FC0B59
:10028E004429071D5B2987185B2900303006031DA2
:10029E00522905302F06031D58292B08A9002C08BA
:1002AE00AA00AF0A0319B00A871C6E2907196E2916
:1002BE0000303006031D652905302F06031D6B29FE
:1002CE002B08A9002C08AA00AF0A0319B00A2A08A5
:1002DE002C06031D74292B082906031D78290510E9
:1002EE0085102A292A082C06031D7F292B0829068A
:1002FE00031DAB2980302E06F00080307002031DE6
:10030E008A290A302D020318AB2905148514823070
:10031E00FC00DD30FD00FD0B9229FC0B9229000044
:10032E000000051085100230FB000430FC00BA30CE
:10033E00FD00FD0BA029FC0BA029FB0BA029000042
:10034E00AD0A0319AE0A792900302E06031DB12914
:10035E000A302D06031DB629FA30AB00AC01B528C4
:02036E00B729AD
:02400E00D40FCD
:00000001FF
